:100000008A11FD2F00308A000408840A8207003418
:100010002034483465346C346C346F3420344734C5
:0E00200072346134683461346D34213400343C
:100D9E008316031789014130831203139F00C0305D
:100DAE00831603139F000800F6000730F500CD30C0
:100DBE00F400F40BE02EF50BE02EE52EF101760893
:100DCE008A11BB278A110800F6000730F500CD30D6
:100DDE00F400F40BF02EF50BF02EF52EF101F10AC6
:100DEE0076088A11BB278A1108000630F000F00B36
:100DFE00FE2E00008312031387161130F000F00B45
:100E0E00062F8312031387120630F000F00B0D2FFE
:100E1E0000000800F800F901212F790878078400F6
:100E2E008A1102208A118A11EB268A110130F700ED
:100E3E007708F9077908780784008A1102208A1149
:100E4E00003A031D2B2F2C2F142F0800831203138F
:100E5E008601103087008316031386018701453003
:100E6E00F8001530F700F70B3A2FF80B3A2F323007
:100E7E008A11DB268A1128308A11DB268A110C3062
:100E8E008A11DB268A1101308A11DB268A1106307F
:100E9E008A11DB268A110800FC0002307702031843
:100EAE00592F5A2F7E2F10307C02031C5F2F602F7C
:100EBE00612F7E2F77030319652F662F6C2F8030DD
:100ECE007C04FA000030FB00712FC0307C04FA0065
:100EDE000030FB007A088A11DB268A110730F900F0
:100EEE00CD30F800F80B792FF90B792F7E2F0800F3
:100EFE008A11CF268A118A112D278A118312031384
:100F0E00071601308A1111278A11F701F70A0830E6
:100F1E008A1153278A1131308A11EB268A11033038
:100F2E0083120313A200A930A100E030A000A00B91
:100F3E009E2FA10B9E2FA20B9E2FA52F01308A1143
:100F4E00DB268A11033083120313A200A930A100FD
:100F5E00E030A000A00BB12FA10BB12FA20BB12F2F
:100F6E00B82F852F8A110028F300710C83120313FA
:100F7E00031C8613031886170613C030F20072087E
:100F8E008605731ECB2FCC2FCD2F0614F31ED02F1C
:100F9E00D12FD22F8614731FD52FD62FD72F0615EC
:100FAE00F31FDA2FDB2FDC2F86158A11FC268A1110
:100FBE00C030F2007208831203138605731CE82FEB
:100FCE00E92FEA2F0614F31CED2FEE2FEF2F8614C8
:100FDE00731DF22FF32FF42F0615F31DF72FF82F95
:100FEE00F92F86158A11FC268A11080083018A11B1
:020FFE007F2F43
:08400000FF3FFF3FFF3FFF3FC0
:04400E00F123FF3F5C
:00000001FF
