:100000008A11FD2FFF1B0C2883137F18831700080C
:10001000840A0319FF0A080000308A000408840AD1
:10002000820700342034203420342034203420341B
:100030002034203420342034203420342034203420
:100040002034203400342034733465346334203455
:100050006534783470346F34733475347234653485
:1000600020342034003420342034203420345434DC
:1000700049344D34453452342034563431342034EC
:1000800020340034203420342034203445344E349D
:100090004C344134523447344534523420342034C3
:1000A0000034203473346534633420346534783458
:1000B00070346F34733475347234653420340034E2
:1000C000203473346534633420346C3461347334D5
:1000D0007434203465347834703400345234453408
:0800E00053344534543400345C
:1006D0008316031789014130831203139F00C03032
:1006E000831603139F000800F5000730F400CD3097
:1006F000F300F30B792BF40B792B7E2BF1017508AA
:100700008A11CC248A110800F5000730F400CD309E
:10071000F300F30B892BF40B892B8E2BF101F10ADB
:1007200075088A11CC248A1108000330F000F00B00
:10073000972B8312031387160330F000F00B9E2BC8
:100740008312031387120330F000F00BA52B08006F
:10075000F5007508F4007408F600B92B7008F40071
:10076000760884007408831380000130F400740854
:10077000F6070130F2020030031CF303F302720AA1
:10078000031DC62B730A031DC62BC72BAE2B0800F7
:1007900083120313A800A51FCE2BCF2BDF2B2D30E8
:1007A000FD00280884007D08831380000130FD00CF
:1007B0007D08A807A409A509A40A0319A50A250804
:1007C000F9002408F8002708FB002608FA0028088A
:1007D0008A1152258A110800F901FF2B7908760742
:1007E000840077080318770AFF008A1102208A1113
:1007F0008A1184238A110130F8007808F9077908F2
:100800007607840077080318770A83120313FF0022
:100810008A1102208A11003A031D0F2C102CEE2B96
:100820000800F4000130F2007208831203139F05E0
:100830007408F20002300310F20DFF3E031D1B2C62
:100840000310720DF30073089F040330F300B830F7
:10085000F200F20B292CF30B292C831203139F14A3
:100860009F18332C342C302C1E08F10083160313F0
:100870001E08F00008008312031386011030870061
:1008800083160313860187011530F7006B30F600DD
:10089000F60B482CF70B482C4D2C02308A11742390
:1008A0008A1128308A1174238A110C308A1174231A
:1008B0008A1106308A1174238A1101308A11742337
:1008C0008A1180308A1174238A110800FB000230DB
:1008D000760203186C2C6D2C912C10307B02031CBB
:1008E000722C732C742C912C76030319782C792C90
:1008F0007F2C80307B04F9000030FA00842CC0305B
:100900007B04F9000030FA0079088A1174238A11F7
:100910000730F800CD30F700F70B8C2CF80B8C2C3F
:10092000912C0800700871040319972C982CC72C7F
:10093000F501F50AA62C01300310F00DF10DFF3E74
:10094000031D9C2C0130F4007408F507F11FA92C3D
:10095000AA2C9B2C71087302031DB02C7008720224
:10096000031CB32CB42CBA2C7008F2027108031CBF
:10097000F303F30201300310F10CF00CFF3E031DF2
:10098000BB2C0130F502031DC62CC72CAA2C730802
:10099000F1007208F0000800F200710C83120313DA
:1009A000031C06130318061786130610861006117B
:1009B0008611721EDC2CDD2CDE2C0614F21EE12CBE
:1009C000E22CE32C8614721FE62CE72CE82C06158B
:1009D000F21FEB2CEC2CED2C86158A1195238A1135
:1009E000831203130610861006118611721CF92C4F
:1009F000FA2CFB2C0614F21CFE2CFF2C002D861466
:100A0000721D032D042D052D0615F21D082D092D2F
:100A10000A2D86158A1195238A110800F501F60121
:100A2000700871040319152D162D4D2DF701F70AC5
:100A3000242D01300310F00DF10DFF3E031D1A2D82
:100A40000130F4007408F707F11F272D282D192D08
:100A500001300310F50DF60DFF3E031D292D710821
:100A60007302031D352D70087202031C382D392DB9
:100A7000402D7008F2027108031CF303F302751491
:100A800001300310F10CF00CFF3E031D412D01302D
:100A9000F702031D4C2D4D2D282D7608F100750809
:100AA000F000080083120313A3007908A10078085E
:100AB000A0007B08F1007A08F0002108F30020086C
:100AC000F2008A110E258A11710883120313A10006
:100AD0007008A0000130FC007C08A3072008210456
:100AE000031D732D742D592D230884008313800159
:100AF0000130A3027B08F1007A08F0007908F300C6
:100B00007808F2008A1192248A117008FC007C088F
:100B100083120313A2007B08F1007A08F000790821
:100B2000F3007808F2008A110E258A117108F90085
:100B30007008F8000A30831203132202031CA12D4F
:100B4000A22DA62D0730FC007C08A2073030FC0047
:100B50007C08A2072208FC00230884007C08831379
:100B600080000130A30278087904031DB82DB92D47
:100B70007A2D0130FC007C08A30708008A11682345
:100B80008A1183120313C101C2018A113B248A1105
:100B9000F60100308A1166248A113130F600803067
:100BA000F7008A11EC238A11F601F60A00308A1147
:100BB00066248A112230F6008030F7008A11EC2377
:100BC0008A11163083120313AB004830AA00143088
:100BD000A900A90BE92DAA0BE92DAB0BE92DF02DEE
:100BE00001308A1174238A1100308A1111248A116C
:100BF000710883120313C4007008C3004408A500E1
:100C00004308A4000A30A6000030A7002C308A1147
:100C1000C8238A11831203134408803AFF008230EC
:100C20007F02031D152EBD304302031C182E192E02
:100C3000782E831203134408803AFF0083307F022A
:100C4000031D242E203043020318272E282E782E31
:100C5000013083120313C1070318C20A0030C20710
:100C60004208803AFF0080307F02031D392E643035
:100C70004102031C3C2E3D2E432E6330831203138E
:100C8000C1000030C200831203134208A5004108CE
:100C9000A4000A30A6000030A70039308A11C8230A
:100CA0008A11F60100308A1166248A113930F60063
:100CB0000030F7008A11EC238A114030F6008030B2
:100CC000F7008A11EC238A1102308A1174238A11E9
:100CD000023083120313AB001130AA005730A90071
:100CE000A90B702EAA0B702EAB0B702E772EF42D45
:100CF000831203134408803AFF0082307F02031DF1
:100D0000832E59304302031C862E872EEB2E83122E
:100D100003134408803AFF0082307F02031D922EA5
:100D2000BC3043020318952E962EEB2EFF30831213
:100D30000313C1070318C20AFF30C2074208803AF2
:100D4000FF0080307F02031DA72E013041020318EF
:100D5000AA2EAB2EB12E013083120313C100003036
:100D6000C200831203134208A5004108A4000A3000
:100D7000A6000030A70039308A11C8238A11F60175
:100D800000308A1166248A113930F6000030F700ED
:100D90008A11EC238A111230F6008030F7008A1194
:100DA000EC238A1102308A1174238A1102308312D3
:100DB0000313AB001130AA005730A900A90BDE2E97
:100DC000AA0BDE2EAB0BDE2EE52EF60100308A11CB
:100DD00066248A11F42D831203134408803AFF001D
:100DE00081307F02031DF62EF5304302031CF92EDD
:100DF000FA2E6B2F831203134408803AFF008230CF
:100E00007F02031D052F583043020318082F092FB6
:100E10006B2F01308A1174238A11F60105308A1173
:100E200066248A115D30F6008030F7008A11EC23C9
:100E30008A11063083120313AB005230AA00C3306C
:100E4000A900A90B212FAA0B212FAB0B212F0000EA
:100E5000013083120313C1000030C2000030F000E3
:100E6000F1000630F2000030F30039308A11A82377
:100E70008A11313083120313A9002908B900023006
:100E80008A1174238A113130F6008030F7008A11FC
:100E9000EC238A11F601F60A00308A1166248A11C1
:100EA0002230F6008030F7008A11EC238A111630C8
:100EB00083120313AB004830AA001430A900A90B19
:100EC0005F2FAA0B5F2FAB0B5F2F662F01308A11AC
:100ED00074238A11F42D831203134408803AFF000F
:100EE00080307F02031D762F0A3043020318792FCA
:100EF0007A2FF72FF60100308A1166248A113930D3
:100F0000F6000030F7008A11EC238A114030F60019
:100F10008030F7008A11EC238A11F601F60A0030BE
:100F20008A1166248A110130F6008030F7008A1198
:100F3000EC238A1102308A1174238A11831203135D
:100F40000712BF01C001E12F063083120313AB006B
:100F50005230AA00C330A900A90BAC2FAA0BAC2FAA
:100F6000AB0BAC2F0000831203133F08013EA4001B
:100F700040080318013E003EA5000A30A6000030DC
:100F8000A70033308A11C8238A11F601F60A00300F
:100F90008A1166248A113330F6000030F7008A1176
:100FA000EC238A114F30F6008030F7008A11EC23D1
:100FB0008A11013083120313BF070318C00A0030DF
:100FC000C0074008803AA9004208803A2902031D60
:100FD000EB2F41083F02031CEE2FEF2FA42F8312AB
:100FE0000313071602308A1174238A11F42D831219
:100FF00003130716F42D8A11002883018A11BE2DD0
:08400000FF3FFF3FFF3FFF3FC0
:04400E00E123FF3F6C
:00000001FF
