:100000008A11FD2FFF1B0C2883137F18831700080C
:10001000840A0319FF0A080000308A000408840AD1
:10002000820700342034203420342034203420341B
:100030002034203420342034203420342034203420
:100040002034203400342034733465346334203455
:100050006534783470346F34733475347234653485
:1000600020342034003420342034203420345434DC
:1000700049344D34453452342034563431342034EC
:1000800020340034203420342034203445344E349D
:100090004C344134523447344534523420342034C3
:1000A0000034203473346534633420346534783458
:1000B00070346F34733475347234653420340034E2
:1000C000203473346534633420346C3461347334D5
:1000D0007434203465347834703400345234453408
:0800E00053344534543400345C
:1006B2008316031789014130831203139F00C03050
:1006C200831603139F000800F5000730F400CD30B5
:1006D200F300F30B6A2BF40B6A2B6F2BF1017508F5
:1006E2008A11BD248A110800F5000730F400CD30CC
:1006F200F300F30B7A2BF40B7A2B7F2BF101F10A27
:1007020075088A11BD248A1108000330F000F00B2D
:10071200882B8312031387160330F000F00B8F2B04
:100722008312031387120330F000F00B962B08009C
:10073200F5007508F4007408F600AA2B7008F4009E
:10074200760884007408831380000130F400740872
:10075200F6070130F2020030031CF303F302720ABF
:10076200031DB72B730A031DB72BB82B9F2B080051
:1007720083120313A800A51FBF2BC02BD02B2D3033
:10078200FD00280884007D08831380000130FD00ED
:100792007D08A807A409A509A40A0319A50A250822
:1007A200F9002408F8002708FB002608FA002808A8
:1007B2008A1143258A110800F901F02B790876077E
:1007C200840077080318770AFF008A1102208A1131
:1007D2008A1175238A110130F8007808F90779081F
:1007E2007607840077080318770A83120313FF0041
:1007F2008A1102208A11003A031D002C012CDF2BE2
:100802000800F4000130F2007208831203139F05FE
:100812007408F20002300310F20DFF3E031D0C2C8F
:100822000310720DF30073089F040330F300B83015
:10083200F200F20B1A2CF30B1A2C831203139F14DF
:100842009F18242C252C212C1E08F100831603133B
:100852001E08F0000800831203138601103087007F
:1008620083160313860187011530F7006B30F600FB
:10087200F60B392CF70B392C3E2C02308A116523EA
:100882008A1128308A1165238A110C308A11652356
:100892008A1106308A1165238A1101308A11652373
:1008A2008A1180308A1165238A110800FB00023008
:1008B200760203185D2C5E2C822C10307B02031C06
:1008C200632C642C652C822C76030319692C6A2C08
:1008D200702C80307B04F9000030FA00752CC03097
:1008E2007B04F9000030FA0079088A1165238A1125
:1008F2000730F800CD30F700F70B7D2CF80B7D2C7C
:10090200822C0800700871040319882C892CB82CD9
:10091200F501F50A972C01300310F00DF10DFF3EA1
:10092200031D8D2C0130F4007408F507F11F9A2C79
:100932009B2C8C2C71087302031DA12C700872026F
:10094200031CA42CA52CAB2C7008F2027108031C0A
:10095200F303F30201300310F10CF00CFF3E031D10
:10096200AC2C0130F502031DB72CB82C9B2C73085C
:10097200F1007208F0000800F200710C83120313F8
:10098200031C061303180617861306108610061199
:100992008611721ECD2CCE2CCF2C0614F21ED22C18
:1009A200D32CD42C8614721FD72CD82CD92C0615F4
:1009B200F21FDC2CDD2CDE2C86158A1186238A118F
:1009C200831203130610861006118611721CEA2C7C
:1009D200EB2CEC2C0614F21CEF2CF02CF12C8614D0
:1009E200721DF42CF52CF62C0615F21DF92CFA2C9E
:1009F200FB2C86158A1186238A110800F501F6015F
:100A0200700871040319062D072D3E2DF701F70A10
:100A1200152D01300310F00DF10DFF3E031D0B2DBE
:100A22000130F4007408F707F11F182D192D0A2D53
:100A320001300310F50DF60DFF3E031D1A2D71084E
:100A42007302031D262D70087202031C292D2A2D04
:100A5200312D7008F2027108031CF303F3027514BE
:100A620001300310F10CF00CFF3E031D322D01305A
:100A7200F702031D3D2D3E2D192D7608F100750854
:100A8200F000080083120313A3007908A10078087C
:100A9200A0007B08F1007A08F0002108F30020088A
:100AA200F2008A11FF248A11710883120313A10034
:100AB2007008A0000130FC007C08A3072008210474
:100AC200031D642D652D4A2D2308840083138001A4
:100AD2000130A3027B08F1007A08F0007908F300E4
:100AE2007808F2008A1183248A117008FC007C08BD
:100AF20083120313A2007B08F1007A08F000790840
:100B0200F3007808F2008A11FF248A117108F900B3
:100B12007008F8000A30831203132202031C922D7C
:100B2200932D972D0730FC007C08A2073030FC0083
:100B32007C08A2072208FC00230884007C08831397
:100B420080000130A30278087904031DA92DAA2D83
:100B52006B2D0130FC007C08A30708008A11592381
:100B62008A11013083120313C1000030C2008A11BE
:100B72002C248A11F60100308A1157248A1131304F
:100B8200F6008030F7008A11DD238A11F601F60A99
:100B920000308A1157248A112230F6008030F70083
:100BA2008A11DD238A11163083120313AB004830F9
:100BB200AA001430A900A90BDC2DAA0BDC2DAB0B6B
:100BC200DC2DE32D01308A1165238A1100308A1150
:100BD20002248A11710883120313C4007008C3002F
:100BE2004408A5004308A4000A30A6000030A7006C
:100BF2002C308A11B9238A11831203134408803AD4
:100C0200FF0082307F02031D082EBD304302031C09
:100C12000B2E0C2E6B2E831203134408803AFF0016
:100C220083307F02031D172E2030430203181A2E31
:100C32001B2E6B2E013083120313C1070318C20A45
:100C42000030C2074208803AFF0080307F02031D55
:100C52002C2E64304102031C2F2E302E362E633090
:100C620083120313C1000030C2008312031342082F
:100C7200A5004108A4000A30A6000030A7003930C0
:100C82008A11B9238A11F60100308A1157248A1178
:100C92003930F6000030F7008A11DD238A11403026
:100CA200F6008030F7008A11DD238A1102308A11A2
:100CB20065238A11023083120313AB001130AA009C
:100CC2005730A900A90B632EAA0B632EAB0B632E20
:100CD2006A2EE72D831203134408803AFF00823004
:100CE2007F02031D762E59304302031C792E7A2E81
:100CF200DE2E831203134408803AFF0082307F0203
:100D0200031D852EBC3043020318882E892EDE2E49
:100D1200FF3083120313C1070318C20AFF30C20750
:100D22004208803AFF0080307F02031D9A2E013074
:100D3200410203189D2E9E2EA42E0130831203130E
:100D4200C1000030C200831203134208A50041080B
:100D5200A4000A30A6000030A70039308A11B92356
:100D62008A11F60100308A1157248A113930F600AF
:100D72000030F7008A11DD238A111230F60080302C
:100D8200F7008A11DD238A1102308A1165238A1144
:100D9200023083120313AB001130AA005730A900AE
:100DA200A90BD12EAA0BD12EAB0BD12ED82EF60128
:100DB20000308A1157248A11E72D83120313440845
:100DC200803AFF0081307F02031DE92EF530430295
:100DD200031CEC2EED2E5E2F831203134408803A7F
:100DE200FF0082307F02031DF82E583043020318A1
:100DF200FB2EFC2E5E2F01308A1165238A11F6012B
:100E020005308A1157248A115D30F6008030F700D0
:100E12008A11DD238A11063083120313AB0052308C
:100E2200AA00C330A900A90B142FAA0B142FAB0BD5
:100E3200142F0000013083120313C1000030C200DE
:100E42000030F000F1000630F2000030F3003930DB
:100E52008A1199238A11313083120313A9002908B8
:100E6200B90002308A1165238A113130F6008030D0
:100E7200F7008A11DD238A11F601F60A00308A1181
:100E820057248A112230F6008030F7008A11DD23C0
:100E92008A11163083120313AB004830AA001430B3
:100EA200A900A90B522FAA0B522FAB0B522F592F6D
:100EB20001308A1165238A11E72D83120313440836
:100EC200803AFF0080307F02031D692F0A304302FF
:100ED20003186C2F6D2FF72FF60100308A1157245B
:100EE2008A11831203134208A5004108A4000A30A4
:100EF200A6000030A70039308A11B9238A1139308F
:100F0200F6000030F7008A11DD238A114030F60026
:100F12008030F7008A11DD238A11F601F60A0030CB
:100F22008A1157248A110130F6008030F7008A11A5
:100F3200DD238A1102308A1165238A118312031379
:100F42000712BF01C001E12F053083120313AB006A
:100F5200DF30AA000330A900A90BAD2FAA0BAD2FD9
:100F6200AB0BAD2F831203133F08013EA4004008D0
:100F72000318013E003EA5000A30A6000030A7007B
:100F820033308A11B9238A11F601F60A00308A1128
:100F920057248A113330F6000030F7008A11DD231E
:100FA2008A114F30F6008030F7008A11DD238A1152
:100FB200013083120313BF070318C00A0030C007B1
:100FC2004008803AA9004208803A2902031DEB2F0B
:100FD20041083F02031CEE2FEF2FA52F83120313AC
:100FE200071602308A1165238A11E72D8312031333
:0E0FF2000716E72D8A11002883018A11AF2D02
:08400000FF3FFF3FFF3FFF3FC0
:04400E00E123FF3F6C
:00000001FF
