:100000008A11FD2FFF1B0C2883137F18831700080C
:10001000840A0319FF0A080000308A000408840AD1
:10002000820700342034203420342034203420341B
:100030002034203420342034203420342034203420
:100040002034203400342034733465346334203455
:100050006534783470346F34733475347234653485
:1000600020342034003420342034203420345434DC
:1000700049344D34453452342034563431342034EC
:1000800020340034203420342034203445344E349D
:100090004C344134523447344534523420342034C3
:1000A0000034203473346534633420346534783458
:1000B00070346F34733475347234653420340034E2
:1000C000203473346534633420346C3461347334D5
:1000D0007434203465347834703400345234453408
:0800E00053344534543400345C
:1006D2008316031789014130831203139F00C03030
:1006E200831603139F000800F5000730F400CD3095
:1006F200F300F30B7A2BF40B7A2B7F2BF1017508A5
:100702008A11CD248A110800F5000730F400CD309B
:10071200F300F30B8A2BF40B8A2B8F2BF101F10AD6
:1007220075088A11CD248A1108000330F000F00BFD
:10073200982B8312031387160330F000F00B9F2BC4
:100742008312031387120330F000F00BA62B08006C
:10075200F5007508F4007408F600BA2B7008F4006E
:10076200760884007408831380000130F400740852
:10077200F6070130F2020030031CF303F302720A9F
:10078200031DC72B730A031DC72BC82BAF2B0800F1
:1007920083120313A800A51FCF2BD02BE02B2D30E3
:1007A200FD00280884007D08831380000130FD00CD
:1007B2007D08A807A409A509A40A0319A50A250802
:1007C200F9002408F8002708FB002608FA00280888
:1007D2008A1153258A110800F901002C790876073D
:1007E200840077080318770AFF008A1102208A1111
:1007F2008A1185238A110130F8007808F9077908EF
:100802007607840077080318770A83120313FF0020
:100812008A1102208A11003A031D102C112CEF2B91
:100822000800F4000130F2007208831203139F05DE
:100832007408F20002300310F20DFF3E031D1C2C5F
:100842000310720DF30073089F040330F300B830F5
:10085200F200F20B2A2CF30B2A2C831203139F149F
:100862009F18342C352C312C1E08F10083160313EB
:100872001E08F0000800831203138601103087005F
:1008820083160313860187011530F7006B30F600DB
:10089200F60B492CF70B492C4E2C02308A1175238A
:1008A2008A1128308A1175238A110C308A11752316
:1008B2008A1106308A1175238A1101308A11752333
:1008C2008A1180308A1175238A110800FB000230D8
:1008D200760203186D2C6E2C922C10307B02031CB6
:1008E200732C742C752C922C76030319792C7A2C88
:1008F200802C80307B04F9000030FA00852CC03057
:100902007B04F9000030FA0079088A1175238A11F4
:100912000730F800CD30F700F70B8D2CF80B8D2C3B
:10092200922C0800700871040319982C992CC82C79
:10093200F501F50AA72C01300310F00DF10DFF3E71
:10094200031D9D2C0130F4007408F507F11FAA2C39
:10095200AB2C9C2C71087302031DB12C700872021F
:10096200031CB42CB52CBB2C7008F2027108031CBA
:10097200F303F30201300310F10CF00CFF3E031DF0
:10098200BC2C0130F502031DC72CC82CAB2C7308FC
:10099200F1007208F0000800F200710C83120313D8
:1009A200031C061303180617861306108610061179
:1009B2008611721EDD2CDE2CDF2C0614F21EE22CB8
:1009C200E32CE42C8614721FE72CE82CE92C061584
:1009D200F21FEC2CED2CEE2C86158A1196238A112F
:1009E200831203130610861006118611721CFA2C4C
:1009F200FB2CFC2C0614F21CFF2C002D012D86145E
:100A0200721D042D052D062D0615F21D092D0A2D28
:100A12000B2D86158A1196238A110800F501F6011D
:100A2200700871040319162D172D4E2DF701F70AC0
:100A3200252D01300310F00DF10DFF3E031D1B2D7E
:100A42000130F4007408F707F11F282D292D1A2D03
:100A520001300310F50DF60DFF3E031D2A2D71081E
:100A62007302031D362D70087202031C392D3A2DB4
:100A7200412D7008F2027108031CF303F30275148E
:100A820001300310F10CF00CFF3E031D422D01302A
:100A9200F702031D4D2D4E2D292D7608F100750804
:100AA200F000080083120313A3007908A10078085C
:100AB200A0007B08F1007A08F0002108F30020086A
:100AC200F2008A110F258A11710883120313A10003
:100AD2007008A0000130FC007C08A3072008210454
:100AE200031D742D752D5A2D230884008313800154
:100AF2000130A3027B08F1007A08F0007908F300C4
:100B02007808F2008A1193248A117008FC007C088C
:100B120083120313A2007B08F1007A08F00079081F
:100B2200F3007808F2008A110F258A117108F90082
:100B32007008F8000A30831203132202031CA22D4C
:100B4200A32DA72D0730FC007C08A2073030FC0043
:100B52007C08A2072208FC00230884007C08831377
:100B620080000130A30278087904031DB92DBA2D43
:100B72007B2D0130FC007C08A30708008A11692341
:100B82008A1183120313C101C2018A113C248A1102
:100B9200F60100308A1167248A113130F600803064
:100BA200F7008A11ED238A11F601F60A00308A1144
:100BB20067248A112230F6008030F7008A11ED2373
:100BC2008A11163083120313AB004830AA00143086
:100BD200A900A90BEA2DAA0BEA2DAB0BEA2DF12DE8
:100BE20001308A1175238A1100308A1112248A1168
:100BF200710883120313C4007008C3004408A500DF
:100C02004308A4000A30A6000030A7002C308A1145
:100C1200C9238A11831203134408803AFF008230E9
:100C22007F02031D162EBD304302031C192E1A2EFD
:100C3200792E831203134408803AFF0083307F0227
:100C4200031D252E203043020318282E292E792E2B
:100C5200013083120313C1070318C20A0030C2070E
:100C62004208803AFF0080307F02031D3A2E643032
:100C72004102031C3D2E3E2E442E63308312031389
:100C8200C1000030C200831203134208A5004108CC
:100C9200A4000A30A6000030A70039308A11C92307
:100CA2008A11F60100308A1167248A113930F60060
:100CB2000030F7008A11ED238A114030F6008030AF
:100CC200F7008A11ED238A1102308A1175238A11E5
:100CD200023083120313AB001130AA005730A9006F
:100CE200A90B712EAA0B712EAB0B712E782EF52D3E
:100CF200831203134408803AFF0082307F02031DEF
:100D0200842E59304302031C872E882EEC2E831228
:100D120003134408803AFF0082307F02031D932EA2
:100D2200BC3043020318962E972EEC2EFF3083120E
:100D32000313C1070318C20AFF30C2074208803AF0
:100D4200FF0080307F02031DA82E013041020318EC
:100D5200AB2EAC2EB22E013083120313C100003031
:100D6200C200831203134208A5004108A4000A30FE
:100D7200A6000030A70039308A11C9238A11F60172
:100D820000308A1167248A113930F6000030F700EA
:100D92008A11ED238A111230F6008030F7008A1191
:100DA200ED238A1102308A1175238A1102308312CF
:100DB2000313AB001130AA005730A900A90BDF2E94
:100DC200AA0BDF2EAB0BDF2EE62EF60100308A11C6
:100DD20067248A11F52D831203134408803AFF0019
:100DE20081307F02031DF72EF5304302031CFA2ED9
:100DF200FB2E6C2F831203134408803AFF008230CB
:100E02007F02031D062F583043020318092F0A2FB1
:100E12006C2F01308A1175238A11F60105308A116F
:100E220067248A115D30F6008030F7008A11ED23C5
:100E32008A11063083120313AB005230AA00C3306A
:100E4200A900A90B222FAA0B222FAB0B222F0000E5
:100E5200013083120313C1000030C2000030F000E1
:100E6200F1000630F2000030F30039308A11A92374
:100E72008A11313083120313A9002908B900023004
:100E82008A1175238A113130F6008030F7008A11F9
:100E9200ED238A11F601F60A00308A1167248A11BD
:100EA2002230F6008030F7008A11ED238A111630C5
:100EB20083120313AB004830AA001430A900A90B17
:100EC200602FAA0B602FAB0B602F672F01308A11A6
:100ED20075238A11F52D831203134408803AFF000B
:100EE20080307F02031D772F0A30430203187A2FC6
:100EF2007B2FF72FF60100308A1167248A113930CF
:100F0200F6000030F7008A11ED238A114030F60016
:100F12008030F7008A11ED238A11F601F60A0030BB
:100F22008A1167248A110130F6008030F7008A1195
:100F3200ED238A1102308A1175238A118312031359
:100F42000712BF01C001E12F053083120313AB006A
:100F5200DF30AA000330A900A90BAD2FAA0BAD2FD9
:100F6200AB0BAD2F831203133F08013EA4004008D0
:100F72000318013E003EA5000A30A6000030A7007B
:100F820033308A11C9238A11F601F60A00308A1118
:100F920067248A113330F6000030F7008A11ED23FE
:100FA2008A114F30F6008030F7008A11ED238A1142
:100FB200013083120313BF070318C00A0030C007B1
:100FC2004008803AA9004208803A2902031DEB2F0B
:100FD20041083F02031CEE2FEF2FA52F83120313AC
:100FE200071602308A1175238A11F52D8312031315
:0E0FF2000716F52D8A11002883018A11BF2DE4
:08400000FF3FFF3FFF3FFF3FC0
:04400E00E123FF3F6C
:00000001FF
