:100000008A11FD2FFF1B0C2883137F18831700080C
:10001000840A0319FF0A080000308A000408840AD1
:10002000820700342034203420342034203420341B
:100030002034203420342034203420342034203420
:10004000203420342034203420342034003431341F
:10005000303420347334653463346F346E34643434
:100060002034643465346C34613479342034203481
:10007000203420342034003420343134203473349C
:10008000653463346F346E346434203464346534DE
:100090006C346134793420342034203420342034DA
:1000A00000342034323420347334653463346F3494
:1000B0006E3464342034643465346C34613479349F
:1000C000203420342034203420340034203435349B
:1000D00020347334653463346F346E3464342034C4
:1000E000643465346C346134793420342034203401
:0600F0002034203400342E
:1008D6008316031789014130831203139F00C0302A
:1008E600831603139F000800F5000730F400CD308F
:1008F600F300F30B7C2CF40B7C2C812CF101750896
:100906008A11AF258A110800F5000730F400CD30B2
:10091600F300F30B8C2CF40B8C2C912CF101F10AC7
:1009260075088A11AF258A1108000330F000F00B14
:100936009A2C8312031387160330F000F00BA12CB8
:100946008312031387120330F000F00BA82C080063
:1009560083120313A800A51FB12CB22CC22C2D3074
:10096600FD00280884007D08831380000130FD0007
:100976007D08A807A409A509A40A0319A50A25083C
:10098600F9002408F8002708FB002608FA002808C2
:100996008A1135268A110800F901E22C79087607B2
:1009A600840077080318770AFF008A1102208A114B
:1009B6008A1187248A110130F8007808F907790826
:1009C6007607840077080318770A83120313FF005B
:1009D6008A1102208A11003A031DF22CF32CD12C25
:1009E6000800F4000130F2007208831203139F0519
:1009F6007408F20002300310F20DFF3E031DFE2CB8
:100A06000310720DF30073089F040330F300B8302F
:100A1600F200F20B0C2DF30B0C2D831203139F1413
:100A26009F18162D172D132D1E08F100831603137C
:100A36001E08F00008008312031386011030870099
:100A460083160313860187011530F7006B30F60015
:100A5600F60B2B2DF70B2B2D302D02308A11772418
:100A66008A1128308A1177248A110C308A1177244A
:100A76008A1106308A1177248A1101308A11772467
:100A86008A1180308A1177248A110800FB0002300F
:100A9600760203184F2D502D742D10307B02031C47
:100AA600552D562D572D742D760303195B2D5C2D70
:100AB600622D80307B04F9000030FA00672DC030CB
:100AC6007B04F9000030FA0079088A1177248A112C
:100AD6000730F800CD30F700F70B6F2DF80B6F2DB0
:100AE600742D08007008710403197A2D7B2DAA2D28
:100AF600F501F50A892D01300310F00DF10DFF3EC9
:100B0600031D7F2D0130F4007408F507F11F8C2DAD
:100B16008D2D7E2D71087302031D932D70087202B0
:100B2600031C962D972D9D2D7008F2027108031C4B
:100B3600F303F30201300310F10CF00CFF3E031D2A
:100B46009E2D0130F502031DA92DAA2D8D2D7308AA
:100B5600F1007208F0000800F200710C8312031312
:100B6600031C0613031806178613061086100611B3
:100B76008611721EBF2DC02DC12D0614F21EC42D66
:100B8600C52DC62D8614721FC92DCA2DCB2D06154F
:100B9600F21FCE2DCF2DD02D86158A1198248A11BD
:100BA600831203130610861006118611721CDC2DA3
:100BB600DD2DDE2D0614F21CE12DE22DE32D86142B
:100BC600721DE62DE72DE82D0615F21DEB2DEC2DF9
:100BD600ED2D86158A1198248A110800F501F60173
:100BE600700871040319F82DF92D302EF701F70A54
:100BF600072E01300310F00DF10DFF3E031DFD2DF4
:100C06000130F4007408F707F11F0A2E0B2EFC2D95
:100C160001300310F50DF60DFF3E031D0C2E710875
:100C26007302031D182E70087202031C1B2E1C2E45
:100C3600232E7008F2027108031CF303F3027514E5
:100C460001300310F10CF00CFF3E031D242E013081
:100C5600F702031D2F2E302E0B2E7608F100750895
:100C6600F000080083120313A3007908A100780896
:100C7600A0007B08F1007A08F0002108F3002008A4
:100C8600F2008A11F1258A11710883120313A1005B
:100C96007008A0000130FC007C08A307200821048E
:100CA600031D562E572E3C2E2308840083138001E5
:100CB6000130A3027B08F1007A08F0007908F300FE
:100CC6007808F2008A1175258A117008FC007C08E4
:100CD60083120313A2007B08F1007A08F00079085A
:100CE600F3007808F2008A11F1258A117108F900DB
:100CF6007008F8000A30831203132202031C842EA4
:100D0600852E892E0730FC007C08A2073030FC00B7
:100D16007C08A2072208FC00230884007C088313B1
:100D260080000130A30278087904031D9B2E9C2EB7
:100D36005D2E0130FC007C08A30708008A116B2495
:100D46008A118A111E258A1100308A11F4248A110B
:100D5600710883120313B4007008B3003408A500A9
:100D66003308A4000A30A6000030A7002C308A11F0
:100D7600AB248A11831203133408803AFF008230B1
:100D86007F02031DC82EBD303302031CCB2ECC2E92
:100D96000C2F831203133408803AFF0083307F023E
:100DA600031DD72E203033020318DA2EDB2E0C2F2C
:100DB600F60100308A1149258A112B30F600803061
:100DC600F7008A11CF248A1102308A1177248A11FA
:100DD600831203130712063083120313AB0052303B
:100DE600AA00C330A900A90BF62EAA0BF62EAB0B50
:100DF600F62E00008312031307160130F60080302A
:100E0600F7008A11CF248A1102308A1177248A11B9
:100E1600ED2F831203133408803AFF0082307F02DD
:100E2600031D172F59303302031C1A2F1B2F5B2F5C
:100E3600831203133408803AFF0082307F02031DB9
:100E4600262FBC3033020318292F2A2F5B2FF601D9
:100E560000308A1149258A114030F6008030F700AB
:100E66008A11CF248A1102308A1177248A118312BB
:100E7600031307120B3083120313AB00A430AA002E
:100E86008930A900A90B452FAA0B452FAB0B452F7F
:100E960000008312031307160130F6008030F700B6
:100EA6008A11CF248A1102308A1177248A11ED2FF4
:100EB600831203133408803AFF0081307F02031D3A
:100EC600662FF5303302031C692F6A2FAA2F83126F
:100ED60003133408803AFF0082307F02031D752F0A
:100EE600583033020318782F792FAA2FF6010030D5
:100EF6008A1149258A115530F6008030F7008A118B
:100F0600CF248A1102308A1177248A11831203139F
:100F160007121B3083120313AB009930AA00DB3093
:100F2600A900A90B942FAA0B942FAB0B942F0000AA
:100F36008312031307160130F6008030F7008A117A
:100F4600CF248A1102308A1177248A11ED2F831259
:100F560003133408803AFF0080307F02031DB52F4B
:100F66000A3033020318B82FB92FEA2FF6010030E2
:100F76008A1149258A111630F6008030F7008A1149
:100F8600CF248A1102308A1177248A11831203131F
:100F96000712363083120313AB003230AA00B83082
:100FA600A900A90BD42FAA0BD42FAB0BD42FDB2F60
:100FB6008312031307160130F6008030F7008A11FA
:100FC600CF248A1102308A1177248A11ED2F8312D9
:100FD60003130716F601F60A00308A1149258A110D
:100FE6002C30F6000030F7008A11CF248A11A72E84
:0A0FF6008A11002883018A11A12E40
:08400000FF3FFF3FFF3FFF3FC0
:04400E00E123FF3F6C
:00000001FF
