:100000008A11FD2FFF1B0C2883137F18831700080C
:10001000840A0319FF0A080000308A000408840AD1
:10002000820700342034203420342034203420341B
:100030002034203420342034203420342034203420
:100040002034203400342034733465346334203455
:100050006534783470346F34733475347234653485
:1000600020342034003420342034203420345434DC
:1000700049344D34453452342034563431342034EC
:1000800020340034203420342034203445344E349D
:100090004C344134523447344534523420342034C3
:1000A0000034203473346534633420346534783458
:1000B00070346F34733475347234653420340034E2
:1000C000203473346534633420346C3461347334D5
:1000D0007434203465347834703400345234453408
:0800E00053344534543400345C
:1006D8008316031789014130831203139F00C0302A
:1006E800831603139F000800F5000730F400CD308F
:1006F800F300F30B7D2BF40B7D2B822BF101750896
:100708008A11D0248A110800F5000730F400CD3092
:10071800F300F30B8D2BF40B8D2B922BF101F10AC7
:1007280075088A11D0248A1108000330F000F00BF4
:100738009B2B8312031387160330F000F00BA22BB8
:100748008312031387120330F000F00BA92B080063
:10075800F5007508F4007408F600BD2B7008F40065
:10076800760884007408831380000130F40074084C
:10077800F6070130F2020030031CF303F302720A99
:10078800031DCA2B730A031DCA2BCB2BB22B0800DF
:1007980083120313A800A51FD22BD32BE32B2D30D4
:1007A800FD00280884007D08831380000130FD00C7
:1007B8007D08A807A409A509A40A0319A50A2508FC
:1007C800F9002408F8002708FB002608FA00280882
:1007D8008A1156258A110800F901032C7908760731
:1007E800840077080318770AFF008A1102208A110B
:1007F8008A1188238A110130F8007808F9077908E6
:100808007607840077080318770A83120313FF001A
:100818008A1102208A11003A031D132C142CF22B82
:100828000800F4000130F2007208831203139F05D8
:100838007408F20002300310F20DFF3E031D1F2C56
:100848000310720DF30073089F040330F300B830EF
:10085800F200F20B2D2CF30B2D2C831203139F1493
:100868009F18372C382C342C1E08F10083160313DC
:100878001E08F00008008312031386011030870059
:1008880083160313860187011530F7006B30F600D5
:10089800F60B4C2CF70B4C2C512C02308A11782378
:1008A8008A1128308A1178238A110C308A1178230A
:1008B8008A1106308A1178238A1101308A11782327
:1008C8008A1180308A1178238A110800FB000230CF
:1008D80076020318702C712C952C10307B02031CA7
:1008E800762C772C782C952C760303197C2C7D2C70
:1008F800832C80307B04F9000030FA00882CC0304B
:100908007B04F9000030FA0079088A1178238A11EB
:100918000730F800CD30F700F70B902CF80B902C2F
:10092800952C08007008710403199B2C9C2CCB2C67
:10093800F501F50AAA2C01300310F00DF10DFF3E68
:10094800031DA02C0130F4007408F507F11FAD2C2D
:10095800AE2C9F2C71087302031DB42C7008720210
:10096800031CB72CB82CBE2C7008F2027108031CAB
:10097800F303F30201300310F10CF00CFF3E031DEA
:10098800BF2C0130F502031DCA2CCB2CAE2C7308EA
:10099800F1007208F0000800F200710C83120313D2
:1009A800031C061303180617861306108610061173
:1009B8008611721EE02CE12CE22C0614F21EE52CA6
:1009C800E62CE72C8614721FEA2CEB2CEC2C06156F
:1009D800F21FEF2CF02CF12C86158A1199238A111D
:1009E800831203130610861006118611721CFD2C43
:1009F800FE2CFF2C0614F21C022D032D042D861448
:100A0800721D072D082D092D0615F21D0C2D0D2D13
:100A18000E2D86158A1199238A110800F501F60111
:100A2800700871040319192D1A2D512DF701F70AB1
:100A3800282D01300310F00DF10DFF3E031D1E2D72
:100A48000130F4007408F707F11F2B2D2C2D1D2DF4
:100A580001300310F50DF60DFF3E031D2D2D710815
:100A68007302031D392D70087202031C3C2D3D2DA5
:100A7800442D7008F2027108031CF303F302751485
:100A880001300310F10CF00CFF3E031D452D013021
:100A9800F702031D502D512D2C2D7608F1007508F5
:100AA800F000080083120313A3007908A100780856
:100AB800A0007B08F1007A08F0002108F300200864
:100AC800F2008A1112258A11710883120313A100FA
:100AD8007008A0000130FC007C08A307200821044E
:100AE800031D772D782D5D2D230884008313800145
:100AF8000130A3027B08F1007A08F0007908F300BE
:100B08007808F2008A1196248A117008FC007C0883
:100B180083120313A2007B08F1007A08F000790819
:100B2800F3007808F2008A1112258A117108F90079
:100B38007008F8000A30831203132202031CA52D43
:100B4800A62DAA2D0730FC007C08A2073030FC0037
:100B58007C08A2072208FC00230884007C08831371
:100B680080000130A30278087904031DBC2DBD2D37
:100B78007E2D0130FC007C08A30708008A116C2335
:100B88008A1183120313C101C2018A113F248A11F9
:100B9800F60100308A116A248A113130F60080305B
:100BA800F7008A11F0238A11F601F60A00308A113B
:100BB8006A248A112230F6008030F7008A11F02367
:100BC8008A11163083120313AB004830AA00143080
:100BD800A900A90BED2DAA0BED2DAB0BED2DF42DD6
:100BE80001308A1178238A1100308A1115248A115C
:100BF800710883120313C4007008C3004408A500D9
:100C08004308A4000A30A6000030A7002C308A113F
:100C1800CC238A11831203134408803AFF008230E0
:100C28007F02031D192EBD304302031C1C2E1D2EEE
:100C38007C2E831203134408803AFF0083307F021E
:100C4800031D282E2030430203182B2E2C2E7C2E19
:100C5800013083120313C1070318C20A0030C20708
:100C68004208803AFF0080307F02031D3D2E643029
:100C78004102031C402E412E472E6330831203137A
:100C8800C1000030C200831203134208A5004108C6
:100C9800A4000A30A6000030A70039308A11CC23FE
:100CA8008A11F60100308A116A248A113930F60057
:100CB8000030F7008A11F0238A114030F6008030A6
:100CC800F7008A11F0238A1102308A1178238A11D9
:100CD800023083120313AB001130AA005730A90069
:100CE800A90B742EAA0B742EAB0B742E7B2EF82D29
:100CF800831203134408803AFF0082307F02031DE9
:100D0800872E59304302031C8A2E8B2EEF2E831216
:100D180003134408803AFF0082307F02031D962E99
:100D2800BC3043020318992E9A2EEF2EFF308312FF
:100D38000313C1070318C20AFF30C2074208803AEA
:100D4800FF0080307F02031DAB2E013041020318E3
:100D5800AE2EAF2EB52E013083120313C100003022
:100D6800C200831203134208A5004108A4000A30F8
:100D7800A6000030A70039308A11CC238A11F60169
:100D880000308A116A248A113930F6000030F700E1
:100D98008A11F0238A111230F6008030F7008A1188
:100DA800F0238A1102308A1178238A1102308312C3
:100DB8000313AB001130AA005730A900A90BE22E8B
:100DC800AA0BE22EAB0BE22EE92EF60100308A11B7
:100DD8006A248A11F82D831203134408803AFF000D
:100DE80081307F02031DFA2EF5304302031CFD2ECD
:100DF800FE2E6B2F831203134408803AFF008230C3
:100E08007F02031D092F5830430203180C2F0D2FA2
:100E18006B2FF60105308A116A248A115D30F600BD
:100E28008030F7008A11F0238A11063083120313E9
:100E3800AB005230AA00C330A900A90B212FAA0B7E
:100E4800212FAB0B212F0000013083120313C100A7
:100E58000030C2000030F000F1000630F20000302F
:100E6800F30039308A11AC238A113130831203130D
:100E7800A9002908B90002308A1178238A11313073
:100E8800F6008030F7008A11F0238A11F601F60A7D
:100E980000308A116A248A112230F6008030F70067
:100EA8008A11F0238A11163083120313AB004830DD
:100EB800AA001430A900A90B5F2FAA0B5F2FAB0B58
:100EC8005F2F662F01308A1178238A11F82D83123B
:100ED80003134408803AFF0080307F02031D762FF9
:100EE8000A3043020318792F7A2FF72FF6010030C2
:100EF8008A116A248A113930F6000030F7008A1105
:100F0800F0238A114030F6008030F7008A11F02370
:100F18008A11F601F60A00308A116A248A11013012
:100F2800F6008030F7008A11F0238A1102308A1106
:100F380078238A11831203130712BF01C001E12F1E
:100F4800063083120313AB005230AA00C330A90045
:100F5800A90BAC2FAA0BAC2FAB0BAC2F0000831244
:100F680003133F08013EA40040080318013E003E59
:100F7800A5000A30A6000030A70033308A11CC2320
:100F88008A11F601F60A00308A116A248A11333070
:100F9800F6000030F7008A11F0238A114F30F6006E
:100FA8008030F7008A11F0238A110130831203136D
:100FB800BF070318C00A0030C0074008803AA900DC
:100FC8004208803A2902031DEB2F41083F02031C07
:100FD800EE2FEF2FA42F83120313071602308A1166
:100FE80078238A11F82D831203130716F82D8A1116
:080FF800002883018A11C22DBB
:08400000FF3FFF3FFF3FFF3FC0
:04400E00E123FF3F6C
:00000001FF
