:100000008A11FD2F00308A000408840A8207003418
:100010002034483465346C346C346F3420344734C5
:1000200072346134683461346D34213400344934BD
:100030007434203477346F3472346B347334003456
:100DB6008316031789014130831203139F00C03045
:100DC600831603139F000800F5000730F400CD30AA
:100DD600F300F30BEC2EF40BEC2EF12EF10175085B
:100DE6008A11BB278A110800F5000730F400CD30C0
:100DF600F300F30BFC2EF40BFC2E012FF101F10A8C
:100E060075088A11BB278A1108000330F000F00B21
:100E16000A2F8312031387160330F000F00B112FED
:100E26008312031387120330F000F00B182F08000B
:100E3600F800F7012B2F7708780784008A11022023
:100E46008A118A11F7268A110130F6007608F7070B
:100E56007708780784008A1102208A11003A031D58
:100E6600352F362F1E2F08008312031386011030EC
:100E7600870083160313860187011530F7006B3050
:100E8600F600F60B442FF70B442F492F02308A1138
:100E9600E7268A1128308A11E7268A110C308A1132
:100EA600E7268A1106308A11E7268A1101308A114F
:100EB600E7268A1180308A11E7268A110800FB008E
:100EC600023076020318682F692F8D2F10307B02AF
:100ED600031C6E2F6F2F702F8D2F76030319742F1F
:100EE600752F7B2F80307B04F9000030FA00802FAD
:100EF600C0307B04F9000030FA0079088A11E72631
:100F06008A110730F800CD30F700F70B882FF80B61
:100F1600882F8D2F08008A11DB268A118A11372720
:100F26008A1183120313071601308A111B278A11AF
:100F3600F601F60A00308A1162278A1110308A11EA
:100F46001B278A110B3083120313A200A430A100C1
:100F56008930A000A00BAD2FA10BAD2FA20BAD2F9A
:100F6600000001308A11E7268A11942F8A11002881
:100F7600F200710C83120313031C061303180617E1
:100F860086130610861006118611721ECB2FCC2FE3
:100F9600CD2F0614F21ED02FD12FD22F8614721FFA
:100FA600D52FD62FD72F0615F21FDA2FDB2FDC2FE2
:100FB60086158A1108278A118312031306108610D4
:100FC60006118611721CE82FE92FEA2F0614F21C6F
:100FD600ED2FEE2FEF2F8614721DF22FF32FF42F25
:100FE6000615F21DF72FF82FF92F86158A110827F7
:0A0FF6008A11080083018A118E2F72
:08400000FF3FFF3FFF3FFF3FC0
:04400E00E123FF3F6C
:00000001FF
